:020000040800F2
:10000000C0070020890100081D0600086B040008D5
:100010001906000807030008B311000800000000DB
:10002000000000000000000000000000510900086E
:100030000B03000800000000F7070008650A00082D
:10004000A3010008A3010008A3010008A301000800
:10005000A3010008A3010008A3010008A3010008F0
:10006000A3010008A3010008A3010008A3010008E0
:10007000A3010008A3010008A3010008A3010008D0
:10008000A3010008A3010008A3010008A3010008C0
:10009000A3010008A3010008A3010008A3010008B0
:1000A000A3010008A3010008A3010008A3010008A0
:1000B000A3010008A3010008A3010008A301000890
:1000C000A3010008A3010008A3010008A301000880
:1000D000A3010008A90D0008A3010008D10E000823
:1000E000A3010008A3010008A301000800F002F822
:1000F00000F03AF80AA090E8000C82448344AAF188
:100100000107DA4501D100F02FF8AFF2090EBAE885
:100110000F0013F0010F18BFFB1A43F0010318473B
:10012000C0110000E0110000103A24BF78C878C167
:10013000FAD8520724BF30C830C144BF04680C60ED
:10014000704700000023002400250026103A28BF35
:1001500078C1FBD8520728BF30C148BF0B60704739
:100160001FB51FBD10B510BD00F06EF81146FFF7AA
:10017000F7FF01F07DF800F0A0F803B4FFF7F2FFFD
:1001800003BC01F018F800000948804709480047FF
:10019000FEE7FEE7FEE7FEE7FEE7FEE7FEE7FEE737
:1001A000FEE7FEE704480549054A064B7047000094
:1001B000690A0008ED000008C0010020C007002007
:1001C000C0030020C0030020704700000FB40449A2
:1001D00010B503AA029800F009F810BC5DF814FBF2
:1001E000180000207047704770477047074B70B584
:1001F0000D467B4400F011F80446284600F020F834
:1002000010B14FF0FF3070BD204670BD5F10000090
:1002100001694A1C02610878704700B58FB0CDE9CA
:1002200001310021059105497944CDE903101146BA
:10023000684600F02EF80FB000BD0000E5FFFFFF9C
:10024000007B00F080007047754600F03DF8AE4638
:1002500005006946534620F00700854618B020B5D2
:10026000FFF7A0FFBDE820404FF000064FF0000769
:100270004FF000084FF0000B21F00701AC46ACE84E
:10028000C009ACE8C009ACE8C009ACE8C0098D46BB
:1002900070472DE9F04106460024D6E90170F56863
:1002A0008046304603E04146B847641C3046A847C4
:1002B0000028F8D12046BDE8F0810446AFF3008065
:1002C0002046FFF75AFF00000048704760010020F9
:1002D00010B54FF4A06000F0DBF900F017F800F063
:1002E0007FF94FF4614000F0A3FD4FF4E13000F0DE
:1002F00005FE00F0BDF800F0F7F941F61F41C720F8
:1003000000F0E2FB10BD00BFFEE7704710B56FF0D4
:10031000040000F093FB0A4800680A49B0FBF1F0C2
:10032000094908700846007800EB4001C1EBC01095
:100330004FF6FF7101EAC0000449088010BD0000BB
:100340000000002000127A00140000201600002097
:100350002DE9F0410246002500260020002300245C
:10036000002791F803C00CF00F0591F803C00CF0C2
:10037000100CBCF1000F03D091F802C04CEA050547
:1003800091F800C0BCF1000F31D0146800202BE0C0
:100390004FF0010C0CFA00F3B1F800C00CEA0306B0
:1003A0009E4220D183004FF00F0C0CFA03F7BC43A0
:1003B00005FA03FC4CEA040491F803C0BCF1280FD1
:1003C00006D14FF0010C0CFA00FCC2F814C00AE090
:1003D00091F803C0BCF1480F05D14FF0010C0CFAA5
:1003E00000FCC2F810C0401C0828D1D31460B1F83A
:1003F00000C0BCF1FF0F34DD546800202EE000F196
:10040000080C4FF0010808FA0CF3B1F800C00CEA30
:1004100003069E4221D183004FF00F0C0CFA03F724
:10042000BC4305FA03FC4CEA040491F803C0BCF198
:10043000280F05D100F1080C08FA0CF8C2F8148056
:1004400091F803C0BCF1480F07D100F1080C4FF040
:10045000010808FA0CF8C2F81080401C0828CED316
:100460005460BDE8F0810161704700BFFEE7000005
:1004700008B50121082000F0CFF94FF48070ADF8E5
:10048000000003208DF8020010208DF8030069465B
:100490000848FFF75DFF4FF40070ADF800006946B3
:1004A0000448FFF755FF0120034908600349C1F8DC
:1004B000A40108BD000C0140A0812142008021421E
:1004C00010B500F033FA0120094908600949C1F864
:1004D000A001052000F098FE0020054908600620D4
:1004E00000F092FE00200349C1F8A00110BD0000F9
:1004F000A48121420080214210B500F017FA0020AB
:10050000094908600949C1F8A401012006490860A9
:10051000062000F079FE01200449C1F8A40106205C
:1005200000F072FE10BD0000A08121420080214237
:1005300010B5002401200F49086000F065FE00F0AE
:10054000E5F901200C49C1F8A00100F05DFE07E0CB
:10055000601CC4B2FA2C03DDFFF7CEFF012010BDF2
:100560000448803800680028F2D10249091F086059
:1005700000BFF4E7A48121420080214270B5044607
:1005800000F0D4F9002014490860002520E004F0B0
:100590008000002804DD01200F49091D086003E0E8
:1005A00000200D49091D08606006040E022000F0BD
:1005B0002BFE012008490860022000F025FE0020E3
:1005C0000649C1F8A001022000F01EFE681CC5B259
:1005D000082DDCDB70BD0000A0812142008021429B
:1005E00008B50121102000F017F94FF40050ADF8C4
:1005F000000010208DF8030003208DF802006946EA
:100600000448FFF7A5FE4FF400510248FFF72BFF07
:1006100008BD00000010014000BFFEE77047000069
:1006200070B5002100230F22C47804B3154C246850
:1006300004F4E064C4F5E064210AC1F10403CA4093
:10064000447804FA03F184781440214309010E4CE4
:100650000678A155047804F01F050124AC40057804
:100660006D11AD0005F1E025C5F8004109E0047801
:1006700004F01F050124AC40044D0678761145F8BE
:10068000264070BD0CED00E000E400E080E100E0F9
:1006900002490143024A1160704700000000FA0558
:1006A0000CED00E010B5002000F001F810BD70B5B1
:1006B0000646002415E004F1B001C8B200F06FF85E
:1006C000002000F06CF8102000F069F8002504E02C
:1006D000304600F06BF8681CC5B2802DF8DB601C5A
:1006E000C4B2082CE7DB70BD10B5642000F066FDD5
:1006F000AE2000F054F8202000F051F8102000F057
:100700004EF8B02000F04BF8C82000F048F8002068
:1007100000F045F8102000F042F8402000F03FF8CB
:10072000812000F03CF8FF2000F039F8A12000F013
:1007300036F8A62000F033F8A82000F030F83F206B
:1007400000F02DF8A42000F02AF8D32000F027F8BC
:10075000002000F024F8D52000F021F8F02000F06F
:100760001EF8D92000F01BF8222000F018F8DA203B
:1007700000F015F8122000F012F8DB2000F00FF85E
:10078000202000F00CF88D2000F009F8142000F073
:1007900006F8AF2000F003F8FFF784FF10BD10B596
:1007A00004462146002000F008F810BD10B50446AC
:1007B0002146402000F001F810BD70B505460C46FA
:1007C000FFF77EFE7820FFF7D9FEFFF7B1FE00B1FC
:1007D0000EE02846FFF7D2FEFFF7AAFE00B107E0C1
:1007E0002046FFF7CBFEFFF7A3FE00B100E000BFFD
:1007F000FFF782FE70BD704729B1064AD2690243F5
:10080000044BDA6104E0034AD2698243014BDA61A6
:10081000704700000010024029B1064A9269024365
:10082000044B9A6104E0034A92698243014B9A6146
:10083000704700000010024030B500210022002463
:1008400000232D4D6D6805F00C0121B1042905D060
:10085000082923D105E0294D056022E0274D0560D8
:100860001FE0254D6D6805F47012234D6D6805F489
:100870008034022505EB92421CB9214D5543056099
:100880000BE01D4D6D6805F400351DB11C4D554341
:10089000056002E0194D5543056002E0174D056003
:1008A00000BF00BF144D6D6805F0F0010909154D3A
:1008B0006B5C0568DD4045600F4D6D6805F4E061D7
:1008C000090A104D6B5C4568DD4085600A4D6D6816
:1008D00005F46051C90A0B4D6B5C4568DD40C5608D
:1008E000054D6D6805F44041890B074D6B5CC5688B
:1008F000B5FBF3F5056130BD0010024000127A002F
:1009000000093D001F0000202F00002008B54FF413
:100910000070ADF8000048208DF8030069460248D9
:10092000FFF716FD08BD0000000C014008B54FF4AC
:100930000070ADF8000003208DF8020010208DF843
:10094000030069460148FFF703FD08BD000C0140A4
:10095000704710B500F002F810BD00000CB5002083
:10096000019000903348006840F4803031490860BD
:1009700000BF3048006800F4003000900198401C2F
:100980000190009818B90198B0F5A06FF1D12948ED
:10099000006800F4003010B10120009001E0002058
:1009A00000900098012843D12348006840F01000CF
:1009B000214908600846006820F0030008600846E6
:1009C000006840F0020008601A4840681949486011
:1009D0000846406848600846406840F480604860C7
:1009E0000846406820F47C1048600846406840F49F
:1009F000E81048600846006840F08070086000BF5A
:100A00000C48006800F000700028F9D009484068E0
:100A100020F00300074948600846406840F00200A3
:100A2000486000BF0348406800F00C000828F9D176
:100A30000CBD00000010024000200240042808D134
:100A40004FF0E021096941F004014FF0E02211610B
:100A500007E04FF0E021096921F004014FF0E022A6
:100A6000116170477047000010B51348006840F0EE
:100A700001001149086008464068104908400E49C5
:100A80004860084600680E4908400B49086008465F
:100A9000006820F4802008600846406820F4FE00CA
:100AA00048604FF41F008860FFF753FF4FF000606D
:100AB0000449086010BD0000001002400000FFF86B
:100AC000FFFFF6FE08ED00E030B589B005460C46A4
:100AD000012140F60400FFF79FFE4FF41060ADF8CF
:100AE000200018208DF8230003208DF8220008A98B
:100AF0001C48FFF72DFCADF81850ADF8144000204D
:100B0000ADF81A00ADF8160005A9174800F0FAF87C
:100B10006020ADF804000120ADF806000020ADF81B
:100B20000A00ADF80C0001A90F4800F047F801A930
:100B30000D4800F099F801210B4800F02FF808212A
:100B4000094800F087F80821074800F0CBF8012198
:100B5000054800F00BF80121034800F013F809B034
:100B600030BD000000080140002C014021B1028886
:100B700042F08002028004E002884FF67F731A4040
:100B80000280704721B1028842F00102028004E035
:100B900002884FF6FE731A400280704731B1B0F8F8
:100BA000442042F40042A0F8442005E0B0F844207C
:100BB000C2F30E02A0F844207047000070B5002474
:100BC00000220023058C4FF6FE7635400584028C0A
:100BD0008388048B4FF68F752C40B51E2C400D88F2
:100BE0002C43751E2A400D892A434D882A43144DF3
:100BF000A8420BD0134DA84208D0134DA84205D0EF
:100C0000124DA84202D0124DA84213D14FF6F775EB
:100C10002A404D892A434FF6FB752A408D882A4386
:100C20004FF6FF652B404FF6FF552B408D892B4328
:100C3000CD892B4383800483CD888586028470BD53
:100C4000002C0140003401400040014000440140BC
:100C5000004801400A460021018B4FF6F773194006
:100C6000114301837047000070B500220023002467
:100C7000058C4EF6FF7635400584038C8488828B84
:100C800048F6FF752A404FF6FF452A400D884FF67B
:100C9000FF7606EA05252A434DF6FF752B400D89A0
:100CA00006EA05352B434D8806EA05352B430B4DE7
:100CB000A84202D00A4DA84208D14BF6FF752C403D
:100CC0008D894FF6FF7606EA85152C438480828352
:100CD000CD88A0F84050038470BD0000002C014076
:100CE000003401400A460021818B4FF2FF73194006
:100CF0004FF6FF7303EA022319438183704781860D
:100D000070470000002202881D4B98420ED01D4BF8
:100D100098420BD0B0F1804F08D01B4B984205D0C1
:100D20001A4B984202D01A4B984204D14FF68F7357
:100D30001A404B881A43174B984207D0164B9842DB
:100D400004D04FF6FF431A40CB881A4302808B88A9
:100D500083850B8803850A4B98420BD0094B984238
:100D600008D00E4B984205D00D4B984202D00D4B47
:100D7000984201D10B7A03860123838270470000D9
:100D8000002C0140003401400004004000080040F5
:100D9000000C0040001000400014004000400140E2
:100DA000004401400048014010B540F225511D4863
:100DB00000F03FF910B31B4800F0F6F9C4B21A482E
:100DC000008800F40040C8B91748008800F480404B
:100DD00060B10A2C03D000201349088020E012489B
:100DE000008840F400401049088019E00D2C06D11D
:100DF0000D48008840F480400B49088010E00A4804
:100E00000088C0F30D0009490C5407480088401CB5
:100E10000549088008460088C72801DD00200880B1
:100E200010BD0000003801401C00002034000020EC
:100E300010B586B00446012144F20400FFF7ECFC33
:100E40004FF40070ADF8140003208DF81600182040
:100E50008DF8170005A91C48FFF77AFA4FF4806057
:100E6000ADF8140004208DF8170005A91648FFF707
:100E70006FFA25208DF8000003208DF801008DF811
:100E8000020001208DF803006846FFF7C9FB0194BA
:100E90000020ADF80800ADF80A00ADF80C00ADF880
:100EA00010000C20ADF80E0001A9084800F010F960
:100EB000012240F22551054800F0E5F801210348E0
:100EC00000F0ABF806B010BD00080140003801404A
:100ED00010B540F22551084800F0ABF830B1064893
:100EE00000F062F9C4B2204600F060F840210248E8
:100EF00000F08AF810BD00000048004010B586B030
:100F0000044601210820FFF787FC01218804FFF730
:100F100073FC4FF48060ADF8140003208DF81600C8
:100F200018208DF8170005A91E48FFF711FA4FF495
:100F30000060ADF8140004208DF8170005A91948C9
:100F4000FFF706FA01940020ADF80800ADF80A009A
:100F5000ADF80C00ADF810000C20ADF80E0001A9A2
:100F6000114800F0B5F801210F4800F056F8402173
:100F70000D4800F049F8012240F225510A4800F0DE
:100F800082F827208DF8000003208DF801008DF8ED
:100F9000020001208DF803006846FFF741FB06B010
:100FA00010BD0000000C01400048004010B5044690
:100FB00000F020F820B108A0FFF708F9012010BDCB
:100FC0000A480B490978445409480078401C0849EC
:100FD00008700020F3E700006572723A20717565B1
:100FE00075652066756C6C210A000000FC0000200D
:100FF0001E00002003480078642801D101207047BA
:101000000020FCE71E00002001F40072B2F5007F12
:1010100000D100BFCA430280704721B1828942F4E7
:101020000052828104E082894DF6FF731A4082816A
:10103000704770B50246002400230025002040F6CA
:101040006A16B14200D100BFC1F3421501F01F037F
:10105000012606FA03F3012D02D19689334006E0FA
:10106000022D02D1168A334001E0968A33400C12D9
:10107000012606FA04F41688344013B10CB101209D
:1010800000E0002070BDF0B50346002400260025D6
:10109000002040F66A17B94200D100BF1846C1F3DC
:1010A000421401F01F06012707FA06F5012C01D1B1
:1010B0000C3004E0022C01D1103000E014301AB1E1
:1010C00007682F43076002E00768AF430760F0BD81
:1010D0002DE9F04786B005460E460024A24600BF23
:1010E000A1460027B08900B100BF2F462C8A4CF6DC
:1010F000FF700440F08804432C82AC894EF6F31054
:101100000440B08831890843718908430443AC81A5
:10111000AC8A4FF6FF400440B0890443AC8201A87A
:10112000FFF78AFB1F48874202D1DDF810A001E0DB
:10113000DDF80CA0A88900F4004040B10AEBCA0019
:1011400000EB0A1031684900B0FBF1F807E00AEB48
:10115000CA0000EB0A1031688900B0FBF1F8642086
:10116000B8FBF0F004012009642101FB1089A88973
:1011700000F4004040B1322000EBC900B0FBF1F0B8
:1011800000F00700044308E0322000EB091064215E
:10119000B0FBF1F000F00F0004432C8106B0BDE875
:1011A000F08700000038014001468888C0F308003D
:1011B000704700BFFEE7014600BF70470146114A75
:1011C00012884A434FF0E0235A6100229A611A467E
:1011D000126942F001021A6100BF4FF0E02210696B
:1011E00000F001021AB100F48032002AF5D04FF06D
:1011F000E022126922F001024FF0E0231A6100227E
:101200009A617047160000200146114A12784A433D
:101210004FF0E0235A6100229A611A46126942F0A7
:1012200001021A6100BF4FF0E022106900F00102D4
:101230001AB100F48032002AF5D04FF0E022126992
:1012400022F001024FF0E0231A6100229A617047F8
:101250001400002000BF054A128802F04002002A54
:10126000F9D0C2B2014B1B1D1A80704700380140F3
:10127000FFF72EF82DE017480068C0431649C1F863
:10128000B401C3211548FFF73AFD4FF47A70FFF718
:1012900095FFBE211148FFF732FD4FF47A70FFF73A
:1012A0008DFFB9210D48FFF72AFD4FF47A70FFF743
:1012B00085FFB4210948FFF722FD4FF47A70FFF74C
:1012C0007DFFAF210548FFF71AFD4FF47A70FFF755
:1012D00075FFD0E7B401224200002242002C0140F9
:1012E000001300080000002034000000280100085E
:1012F00034130008340000208C070000440100086B
:1013000000A24A04000000000000000001020304E3
:1013100006070809000000000000000000000000AF
:101320000000000102030401020304060708090289
:0413300004060800A7
:04000005080000ED02
:00000001FF
